:020000040800F2
:1000000000500020A9040008F1040008F1040008D1
:10001000F1040008F1040008F104000800000000E9
:10002000000000000000000000000000F1040008D3
:10003000F104000800000000F1040008F1040008C9
:10004000F1040008F1040008F1040008F1040008BC
:10005000F1040008F1040008F1040008F1040008AC
:10006000F1040008F1040008F1040008F10400089C
:10007000F1040008F1040008F1040008F10400088C
:10008000F1040008F1040008F1040008F10400087C
:10009000F1040008F1040008F1040008F10400086C
:1000A000F1040008F1040008F1040008F10400085C
:1000B000F1040008F1040008F1040008F10400084C
:1000C000F1040008F1040008F1040008F10400083C
:1000D000F1040008F1040008F1040008F10400082C
:1000E000F1040008F1040008F10400080000000019
:1000F0000000000000000000000000000000000000
:0C01000000000000000000005FF808F1A3
:10010C000348044B834202D0034B03B1184770479A
:10011C000400002004000020000000000548064BED
:10012C001B1AD90F01EBA301491002D0034B03B1E9
:10013C001847704704000020040000200000000055
:10014C0010B5064C237843B9FFF7DAFF044B13B113
:10015C000448AFF300800123237010BD040000207D
:10016C00000000003C05000808B5054B1BB1054913
:10017C000548AFF30080BDE80840FFF7CFBF00BFD4
:10018C0000000000080000203C0500084FF0000CA7
:10019C000AE00131074B1B68074AA2FB0323B1EBB2
:1001AC00533FF6D30CF1010C844501D20021F1E749
:1001BC00704700BF0000002073B2E74500B583B064
:1001CC0000F090F800F0B6F80121102000F058F97A
:1001DC004FF40053ADF8043010238DF80730022390
:1001EC008DF8063001A90B4800F0EEF8094C4FF4DD
:1001FC000051204600F040F94FF4FA70FFF7C6FFAB
:10020C004FF40051204600F039F94FF4FA70FFF723
:10021C00BDFFEBE70010014082B000230193009377
:10022C002C4A136843F4803313602A4B1B6803F485
:10023C0000330093019B01330193009B1BB9019B7D
:10024C00B3F5A06FF1D1234B1B6813F4003F06D01C
:10025C0001230093009B012B04D002B070470023B4
:10026C000093F7E71C4B1A6842F010021A601A68E8
:10027C0022F007021A601A6842F002021A60A3F513
:10028C0080535A685A605A685A605A6842F48062BD
:10029C005A605A6822F47C125A605A6842F4E81286
:1002AC005A601A6842F080721A600A4B1B6813F08D
:1002BC00007FFAD0074B5A6822F003025A605A6842
:1002CC0042F002025A60034B5B6803F00C03082BEC
:1002DC00F9D1C2E7001002400020024008B5FFF738
:1002EC009BFF08BD08B5104B1A6842F001021A605A
:1002FC0059680E4A0A405A601A6822F0847222F435
:10030C0080321A601A6822F480221A605A6822F429
:10031C00FE025A604FF41F029A60FFF7DFFF044B96
:10032C004FF000629A6008BD001002400000FFF818
:10033C0000ED00E01F4B5B6803F00C03042B11D0A5
:10034C00082B13D0002B31D11B4B1C4A1A60194BB4
:10035C005B68C3F303131A4AD15C174A1368CB408A
:10036C0013607047144B154A1A60F0E7114A536832
:10037C005268C3F38343023312F4803F05D1114A10
:10038C0002FB03F30C4A1360E1E70A4A526812F4C9
:10039C00003F05D00B4A02FB03F3074A1360D6E774
:1003AC00064A02FB03F3044A1360D0E7024B034AEC
:1003BC001A60CCE7001002400000002000127A0006
:1003CC005405000800093D0030B5CB7803F00F024E
:1003DC00964613F0100F03D091F802E04EEA020E8D
:1003EC000B78FBB10568002301E042610133072B58
:1003FC0017D801229A40B1F800C032EA0C0CF5D1A2
:10040C009C004FF00F0C0CFA04FC25EA0C050EFABC
:10041C0004F42543CC78282CE7D0482CE6D1026193
:10042C00E4E705600B88FF2B25D94568002303E022
:10043C00CC78482C1CD00133072B1BD803F1080CAB
:10044C00012202FA0CF2B1F800C032EA0C0CF2D123
:10045C009C004FF00F0C0CFA04FC25EA0C0C0EFA65
:10046C0004F444EA0C05CC78282CE1D14261DFE796
:10047C000261E0E7456030BD016170474161704742
:10048C0021B1054A9369034393617047024A93690A
:10049C0023EA00039361704700100240FFF722FF2C
:1004AC000B480C490C4A002302E0D458C4500433C6
:1004BC00C4188C42F9D3094A094C002301E013609B
:1004CC000432A242FBD300F00FF8FFF777FE70471F
:1004DC0000000020040000206C050008040000202F
:1004EC0020000020FEE7000070B500260C4D0D4BDF
:1004FC005B1B9C10A64209D1002600F019F80A4D8E
:10050C000A4B5B1B9C10A64205D170BD55F8043BF1
:10051C0098470136EEE755F8043B98470136F2E769
:10052C0064050008640500086405000868050008F7
:10053C00F8B500BFF8BC08BC9E467047F8B500BFC4
:08054C00F8BC08BC9E46704794
:10055400000000000000000001020304060708096F
:040564007501000815
:040568004D01000839
:04056C0000A24A049B
:04000005080004A942
:00000001FF
